{
  "_format": "hh-sol-artifact-1",
  "contractName": "Dex",
  "sourceName": "contracts/Dex.sol",
  "abi": [
    {
      "anonymous": false,
      "inputs": [
        {
          "indexed": true,
          "internalType": "address",
          "name": "trader",
          "type": "address"
        },
        {
          "indexed": false,
          "internalType": "enum Dex.Side",
          "name": "side",
          "type": "uint8"
        },
        {
          "indexed": true,
          "internalType": "bytes32",
          "name": "ticker",
          "type": "bytes32"
        },
        {
          "indexed": false,
          "internalType": "uint256",
          "name": "amount",
          "type": "uint256"
        },
        {
          "indexed": false,
          "internalType": "uint256",
          "name": "price",
          "type": "uint256"
        }
      ],
      "name": "LimitOrder",
      "type": "event"
    },
    {
      "anonymous": false,
      "inputs": [
        {
          "indexed": true,
          "internalType": "address",
          "name": "trader",
          "type": "address"
        },
        {
          "indexed": false,
          "internalType": "enum Dex.Side",
          "name": "side",
          "type": "uint8"
        },
        {
          "indexed": true,
          "internalType": "bytes32",
          "name": "ticker",
          "type": "bytes32"
        },
        {
          "indexed": false,
          "internalType": "uint256",
          "name": "amount",
          "type": "uint256"
        }
      ],
      "name": "MarketOrder",
      "type": "event"
    },
    {
      "anonymous": false,
      "inputs": [
        {
          "indexed": true,
          "internalType": "address",
          "name": "previousOwner",
          "type": "address"
        },
        {
          "indexed": true,
          "internalType": "address",
          "name": "newOwner",
          "type": "address"
        }
      ],
      "name": "OwnershipTransferred",
      "type": "event"
    },
    {
      "inputs": [
        {
          "internalType": "bytes32",
          "name": "",
          "type": "bytes32"
        },
        {
          "internalType": "uint256",
          "name": "",
          "type": "uint256"
        },
        {
          "internalType": "uint256",
          "name": "",
          "type": "uint256"
        }
      ],
      "name": "OrderBook",
      "outputs": [
        {
          "internalType": "uint256",
          "name": "id",
          "type": "uint256"
        },
        {
          "internalType": "address",
          "name": "trader",
          "type": "address"
        },
        {
          "internalType": "enum Dex.Side",
          "name": "side",
          "type": "uint8"
        },
        {
          "internalType": "bytes32",
          "name": "ticker",
          "type": "bytes32"
        },
        {
          "internalType": "uint256",
          "name": "amount",
          "type": "uint256"
        },
        {
          "internalType": "uint256",
          "name": "price",
          "type": "uint256"
        },
        {
          "internalType": "uint256",
          "name": "filled",
          "type": "uint256"
        }
      ],
      "stateMutability": "view",
      "type": "function"
    },
    {
      "inputs": [
        {
          "internalType": "bytes32",
          "name": "ticker",
          "type": "bytes32"
        },
        {
          "internalType": "address",
          "name": "tokenAddress",
          "type": "address"
        }
      ],
      "name": "addToken",
      "outputs": [],
      "stateMutability": "nonpayable",
      "type": "function"
    },
    {
      "inputs": [
        {
          "internalType": "address",
          "name": "",
          "type": "address"
        },
        {
          "internalType": "bytes32",
          "name": "",
          "type": "bytes32"
        }
      ],
      "name": "balances",
      "outputs": [
        {
          "internalType": "uint256",
          "name": "",
          "type": "uint256"
        }
      ],
      "stateMutability": "view",
      "type": "function"
    },
    {
      "inputs": [
        {
          "internalType": "enum Dex.Side",
          "name": "side",
          "type": "uint8"
        },
        {
          "internalType": "bytes32",
          "name": "ticker",
          "type": "bytes32"
        },
        {
          "internalType": "uint256",
          "name": "amount",
          "type": "uint256"
        },
        {
          "internalType": "uint256",
          "name": "price",
          "type": "uint256"
        }
      ],
      "name": "createLimitOrder",
      "outputs": [],
      "stateMutability": "nonpayable",
      "type": "function"
    },
    {
      "inputs": [
        {
          "internalType": "enum Dex.Side",
          "name": "side",
          "type": "uint8"
        },
        {
          "internalType": "bytes32",
          "name": "ticker",
          "type": "bytes32"
        },
        {
          "internalType": "uint256",
          "name": "amount",
          "type": "uint256"
        }
      ],
      "name": "createMarketOrder",
      "outputs": [],
      "stateMutability": "nonpayable",
      "type": "function"
    },
    {
      "inputs": [
        {
          "internalType": "uint256",
          "name": "amount",
          "type": "uint256"
        },
        {
          "internalType": "bytes32",
          "name": "ticker",
          "type": "bytes32"
        }
      ],
      "name": "deposit",
      "outputs": [],
      "stateMutability": "nonpayable",
      "type": "function"
    },
    {
      "inputs": [],
      "name": "depositEth",
      "outputs": [],
      "stateMutability": "payable",
      "type": "function"
    },
    {
      "inputs": [
        {
          "internalType": "bytes32",
          "name": "ticker",
          "type": "bytes32"
        },
        {
          "internalType": "enum Dex.Side",
          "name": "side",
          "type": "uint8"
        }
      ],
      "name": "getOrderBook",
      "outputs": [
        {
          "components": [
            {
              "internalType": "uint256",
              "name": "id",
              "type": "uint256"
            },
            {
              "internalType": "address",
              "name": "trader",
              "type": "address"
            },
            {
              "internalType": "enum Dex.Side",
              "name": "side",
              "type": "uint8"
            },
            {
              "internalType": "bytes32",
              "name": "ticker",
              "type": "bytes32"
            },
            {
              "internalType": "uint256",
              "name": "amount",
              "type": "uint256"
            },
            {
              "internalType": "uint256",
              "name": "price",
              "type": "uint256"
            },
            {
              "internalType": "uint256",
              "name": "filled",
              "type": "uint256"
            }
          ],
          "internalType": "struct Dex.Order[]",
          "name": "",
          "type": "tuple[]"
        }
      ],
      "stateMutability": "view",
      "type": "function"
    },
    {
      "inputs": [],
      "name": "getTokenListLength",
      "outputs": [
        {
          "internalType": "uint256",
          "name": "",
          "type": "uint256"
        }
      ],
      "stateMutability": "view",
      "type": "function"
    },
    {
      "inputs": [],
      "name": "nextOrderId",
      "outputs": [
        {
          "internalType": "uint256",
          "name": "",
          "type": "uint256"
        }
      ],
      "stateMutability": "view",
      "type": "function"
    },
    {
      "inputs": [],
      "name": "owner",
      "outputs": [
        {
          "internalType": "address",
          "name": "",
          "type": "address"
        }
      ],
      "stateMutability": "view",
      "type": "function"
    },
    {
      "inputs": [],
      "name": "renounceOwnership",
      "outputs": [],
      "stateMutability": "nonpayable",
      "type": "function"
    },
    {
      "inputs": [
        {
          "internalType": "uint256",
          "name": "",
          "type": "uint256"
        }
      ],
      "name": "tokenList",
      "outputs": [
        {
          "internalType": "bytes32",
          "name": "",
          "type": "bytes32"
        }
      ],
      "stateMutability": "view",
      "type": "function"
    },
    {
      "inputs": [
        {
          "internalType": "bytes32",
          "name": "",
          "type": "bytes32"
        }
      ],
      "name": "tokenMapping",
      "outputs": [
        {
          "internalType": "bytes32",
          "name": "ticker",
          "type": "bytes32"
        },
        {
          "internalType": "address",
          "name": "tokenAddress",
          "type": "address"
        }
      ],
      "stateMutability": "view",
      "type": "function"
    },
    {
      "inputs": [
        {
          "internalType": "address",
          "name": "newOwner",
          "type": "address"
        }
      ],
      "name": "transferOwnership",
      "outputs": [],
      "stateMutability": "nonpayable",
      "type": "function"
    },
    {
      "inputs": [
        {
          "internalType": "uint256",
          "name": "amount",
          "type": "uint256"
        },
        {
          "internalType": "bytes32",
          "name": "ticker",
          "type": "bytes32"
        }
      ],
      "name": "withdraw",
      "outputs": [],
      "stateMutability": "nonpayable",
      "type": "function"
    }
  ],
  "bytecode": "0x608060405260006004553480156200001657600080fd5b50620000376200002b6200003d60201b60201c565b6200004560201b60201c565b62000109565b600033905090565b60008060009054906101000a900473ffffffffffffffffffffffffffffffffffffffff169050816000806101000a81548173ffffffffffffffffffffffffffffffffffffffff021916908373ffffffffffffffffffffffffffffffffffffffff1602179055508173ffffffffffffffffffffffffffffffffffffffff168173ffffffffffffffffffffffffffffffffffffffff167f8be0079c531659141344cd1fd0a4f28419497f9722a3daafe3b4186f6b6457e060405160405180910390a35050565b613ffa80620001196000396000f3fe6080604052600436106100f35760003560e01c80639776aacf1161008a578063acc02df911610059578063acc02df9146102f6578063ba58ea6814610339578063c9630cb014610376578063f2fde38b1461039f576100f3565b80639776aacf1461023e57806399ec2f1c146102675780639ead722214610290578063a8d2021a146102cd576100f3565b8063667cb4ba116100c6578063667cb4ba146101955780636f3b62f9146101d3578063715018a6146101fc5780638da5cb5b14610213576100f3565b80631f14df69146100f85780632a58b33014610135578063439370b1146101605780635719dd221461016a575b600080fd5b34801561010457600080fd5b5061011f600480360381019061011a9190613455565b6103c8565b60405161012c9190613c44565b60405180910390f35b34801561014157600080fd5b5061014a6103ed565b6040516101579190613c44565b60405180910390f35b6101686103f3565b005b34801561017657600080fd5b5061017f6104ec565b60405161018c9190613c44565b60405180910390f35b3480156101a157600080fd5b506101bc60048036038101906101b791906134ba565b6104f9565b6040516101ca929190613adb565b60405180910390f35b3480156101df57600080fd5b506101fa60048036038101906101f591906135f9565b61053d565b005b34801561020857600080fd5b506102116114dd565b005b34801561021f57600080fd5b50610228611565565b6040516102359190613a23565b60405180910390f35b34801561024a57600080fd5b50610265600480360381019061026091906134e3565b61158e565b005b34801561027357600080fd5b5061028e600480360381019061028991906135aa565b6116c9565b005b34801561029c57600080fd5b506102b760048036038101906102b2919061365c565b6129d6565b6040516102c49190613ac0565b60405180910390f35b3480156102d957600080fd5b506102f460048036038101906102ef9190613685565b6129fa565b005b34801561030257600080fd5b5061031d6004803603810190610318919061355b565b612d30565b6040516103309796959493929190613c5f565b60405180910390f35b34801561034557600080fd5b50610360600480360381019061035b919061351f565b612dc9565b60405161036d9190613a9e565b60405180910390f35b34801561038257600080fd5b5061039d60048036038101906103989190613685565b612f94565b005b3480156103ab57600080fd5b506103c660048036038101906103c1919061342c565b6131bd565b005b6003602052816000526040600020602052806000526040600020600091509150505481565b60045481565b61047634600360003373ffffffffffffffffffffffffffffffffffffffff1673ffffffffffffffffffffffffffffffffffffffff16815260200190815260200160002060007f45544800000000000000000000000000000000000000000000000000000000008152602001908152602001600020546132b590919063ffffffff16565b600360003373ffffffffffffffffffffffffffffffffffffffff1673ffffffffffffffffffffffffffffffffffffffff16815260200190815260200160002060007f4554480000000000000000000000000000000000000000000000000000000000815260200190815260200160002081905550565b6000600280549050905090565b60016020528060005260406000206000915090508060000154908060010160009054906101000a900473ffffffffffffffffffffffffffffffffffffffff16905082565b60006001811115610577577f4e487b7100000000000000000000000000000000000000000000000000000000600052602160045260246000fd5b8460018111156105b0577f4e487b7100000000000000000000000000000000000000000000000000000000600052602160045260246000fd5b1415610680576105c981836132cb90919063ffffffff16565b600360003373ffffffffffffffffffffffffffffffffffffffff1673ffffffffffffffffffffffffffffffffffffffff16815260200190815260200160002060007f4554480000000000000000000000000000000000000000000000000000000000815260200190815260200160002054101561067b576040517f08c379a000000000000000000000000000000000000000000000000000000000815260040161067290613be4565b60405180910390fd5b61078d565b6001808111156106b9577f4e487b7100000000000000000000000000000000000000000000000000000000600052602160045260246000fd5b8460018111156106f2577f4e487b7100000000000000000000000000000000000000000000000000000000600052602160045260246000fd5b141561078c5781600360003373ffffffffffffffffffffffffffffffffffffffff1673ffffffffffffffffffffffffffffffffffffffff168152602001908152602001600020600085815260200190815260200160002054101561078b576040517f08c379a000000000000000000000000000000000000000000000000000000000815260040161078290613c04565b60405180910390fd5b5b5b60006005600085815260200190815260200160002060008660018111156107dd577f4e487b7100000000000000000000000000000000000000000000000000000000600052602160045260246000fd5b81526020019081526020016000209050806040518060e0016040528060045481526020013373ffffffffffffffffffffffffffffffffffffffff168152602001876001811115610856577f4e487b7100000000000000000000000000000000000000000000000000000000600052602160045260246000fd5b8152602001868152602001858152602001848152602001600081525090806001815401808255809150506001900390600052602060002090600602016000909190919091506000820151816000015560208201518160010160006101000a81548173ffffffffffffffffffffffffffffffffffffffff021916908373ffffffffffffffffffffffffffffffffffffffff16021790555060408201518160010160146101000a81548160ff0219169083600181111561093d577f4e487b7100000000000000000000000000000000000000000000000000000000600052602160045260246000fd5b0217905550606082015181600201556080820151816003015560a0820151816004015560c082015181600501555050600080828054905011610980576000610992565b600182805490506109919190613dc8565b5b9050600060018111156109ce577f4e487b7100000000000000000000000000000000000000000000000000000000600052602160045260246000fd5b866001811115610a07577f4e487b7100000000000000000000000000000000000000000000000000000000600052602160045260246000fd5b1415610f01575b6000811115610efc57818181548110610a50577f4e487b7100000000000000000000000000000000000000000000000000000000600052603260045260246000fd5b90600052602060002090600602016004015482600183610a709190613dc8565b81548110610aa7577f4e487b7100000000000000000000000000000000000000000000000000000000600052603260045260246000fd5b9060005260206000209060060201600401541115610ac457610efc565b600082600183610ad49190613dc8565b81548110610b0b577f4e487b7100000000000000000000000000000000000000000000000000000000600052603260045260246000fd5b90600052602060002090600602016040518060e0016040529081600082015481526020016001820160009054906101000a900473ffffffffffffffffffffffffffffffffffffffff1673ffffffffffffffffffffffffffffffffffffffff1673ffffffffffffffffffffffffffffffffffffffff1681526020016001820160149054906101000a900460ff166001811115610bcf577f4e487b7100000000000000000000000000000000000000000000000000000000600052602160045260246000fd5b6001811115610c07577f4e487b7100000000000000000000000000000000000000000000000000000000600052602160045260246000fd5b81526020016002820154815260200160038201548152602001600482015481526020016005820154815250509050828281548110610c6e577f4e487b7100000000000000000000000000000000000000000000000000000000600052603260045260246000fd5b906000526020600020906006020183600184610c8a9190613dc8565b81548110610cc1577f4e487b7100000000000000000000000000000000000000000000000000000000600052603260045260246000fd5b9060005260206000209060060201600082015481600001556001820160009054906101000a900473ffffffffffffffffffffffffffffffffffffffff168160010160006101000a81548173ffffffffffffffffffffffffffffffffffffffff021916908373ffffffffffffffffffffffffffffffffffffffff1602179055506001820160149054906101000a900460ff168160010160146101000a81548160ff02191690836001811115610d9e577f4e487b7100000000000000000000000000000000000000000000000000000000600052602160045260246000fd5b02179055506002820154816002015560038201548160030155600482015481600401556005820154816005015590505080838381548110610e08577f4e487b7100000000000000000000000000000000000000000000000000000000600052603260045260246000fd5b90600052602060002090600602016000820151816000015560208201518160010160006101000a81548173ffffffffffffffffffffffffffffffffffffffff021916908373ffffffffffffffffffffffffffffffffffffffff16021790555060408201518160010160146101000a81548160ff02191690836001811115610eb8577f4e487b7100000000000000000000000000000000000000000000000000000000600052602160045260246000fd5b0217905550606082015181600201556080820151816003015560a0820151816004015560c082015181600501559050508180610ef390613e73565b92505050610a0e565b61146a565b600180811115610f3a577f4e487b7100000000000000000000000000000000000000000000000000000000600052602160045260246000fd5b866001811115610f73577f4e487b7100000000000000000000000000000000000000000000000000000000600052602160045260246000fd5b1415611469575b600081111561146857818181548110610fbc577f4e487b7100000000000000000000000000000000000000000000000000000000600052603260045260246000fd5b90600052602060002090600602016004015482600183610fdc9190613dc8565b81548110611013577f4e487b7100000000000000000000000000000000000000000000000000000000600052603260045260246000fd5b906000526020600020906006020160040154101561103057611468565b6000826001836110409190613dc8565b81548110611077577f4e487b7100000000000000000000000000000000000000000000000000000000600052603260045260246000fd5b90600052602060002090600602016040518060e0016040529081600082015481526020016001820160009054906101000a900473ffffffffffffffffffffffffffffffffffffffff1673ffffffffffffffffffffffffffffffffffffffff1673ffffffffffffffffffffffffffffffffffffffff1681526020016001820160149054906101000a900460ff16600181111561113b577f4e487b7100000000000000000000000000000000000000000000000000000000600052602160045260246000fd5b6001811115611173577f4e487b7100000000000000000000000000000000000000000000000000000000600052602160045260246000fd5b815260200160028201548152602001600382015481526020016004820154815260200160058201548152505090508282815481106111da577f4e487b7100000000000000000000000000000000000000000000000000000000600052603260045260246000fd5b9060005260206000209060060201836001846111f69190613dc8565b8154811061122d577f4e487b7100000000000000000000000000000000000000000000000000000000600052603260045260246000fd5b9060005260206000209060060201600082015481600001556001820160009054906101000a900473ffffffffffffffffffffffffffffffffffffffff168160010160006101000a81548173ffffffffffffffffffffffffffffffffffffffff021916908373ffffffffffffffffffffffffffffffffffffffff1602179055506001820160149054906101000a900460ff168160010160146101000a81548160ff0219169083600181111561130a577f4e487b7100000000000000000000000000000000000000000000000000000000600052602160045260246000fd5b02179055506002820154816002015560038201548160030155600482015481600401556005820154816005015590505080838381548110611374577f4e487b7100000000000000000000000000000000000000000000000000000000600052603260045260246000fd5b90600052602060002090600602016000820151816000015560208201518160010160006101000a81548173ffffffffffffffffffffffffffffffffffffffff021916908373ffffffffffffffffffffffffffffffffffffffff16021790555060408201518160010160146101000a81548160ff02191690836001811115611424577f4e487b7100000000000000000000000000000000000000000000000000000000600052602160045260246000fd5b0217905550606082015181600201556080820151816003015560a0820151816004015560c08201518160050155905050818061145f90613e73565b92505050610f7a565b5b5b6004600081548092919061147d90613e9d565b9190505550843373ffffffffffffffffffffffffffffffffffffffff167fb21aaadcc4441439cd4a9353eebe4b9b083795e7b5add7cc029661e8b3f6ae228887876040516114cd93929190613b2d565b60405180910390a3505050505050565b6114e56132e1565b73ffffffffffffffffffffffffffffffffffffffff16611503611565565b73ffffffffffffffffffffffffffffffffffffffff1614611559576040517f08c379a000000000000000000000000000000000000000000000000000000000815260040161155090613bc4565b60405180910390fd5b61156360006132e9565b565b60008060009054906101000a900473ffffffffffffffffffffffffffffffffffffffff16905090565b6115966132e1565b73ffffffffffffffffffffffffffffffffffffffff166115b4611565565b73ffffffffffffffffffffffffffffffffffffffff161461160a576040517f08c379a000000000000000000000000000000000000000000000000000000000815260040161160190613bc4565b60405180910390fd5b60405180604001604052808381526020018273ffffffffffffffffffffffffffffffffffffffff16815250600160008481526020019081526020016000206000820151816000015560208201518160010160006101000a81548173ffffffffffffffffffffffffffffffffffffffff021916908373ffffffffffffffffffffffffffffffffffffffff16021790555090505060028290806001815401808255809150506001900390600052602060002001600090919091909150555050565b600180811115611702577f4e487b7100000000000000000000000000000000000000000000000000000000600052602160045260246000fd5b83600181111561173b577f4e487b7100000000000000000000000000000000000000000000000000000000600052602160045260246000fd5b14156117f55780600360003373ffffffffffffffffffffffffffffffffffffffff1673ffffffffffffffffffffffffffffffffffffffff16815260200190815260200160002060007f455448000000000000000000000000000000000000000000000000000000000081526020019081526020016000205410156117f4576040517f08c379a00000000000000000000000000000000000000000000000000000000081526004016117eb90613b84565b60405180910390fd5b5b6000806001811115611830577f4e487b7100000000000000000000000000000000000000000000000000000000600052602160045260246000fd5b846001811115611869577f4e487b7100000000000000000000000000000000000000000000000000000000600052602160045260246000fd5b1415611878576001905061187d565b600090505b600060056000858152602001908152602001600020600083815260200190815260200160002090506000805b8280549050811080156118bb57508482105b1561264d5760006118d583876133ad90919063ffffffff16565b90506000611980858481548110611915577f4e487b7100000000000000000000000000000000000000000000000000000000600052603260045260246000fd5b906000526020600020906006020160050154868581548110611960577f4e487b7100000000000000000000000000000000000000000000000000000000600052603260045260246000fd5b9060005260206000209060060201600301546133ad90919063ffffffff16565b905060008282111561199457829050611998565b8190505b6119ab81866132b590919063ffffffff16565b9450611a0a818786815481106119ea577f4e487b7100000000000000000000000000000000000000000000000000000000600052603260045260246000fd5b9060005260206000209060060201600501546132b590919063ffffffff16565b868581548110611a43577f4e487b7100000000000000000000000000000000000000000000000000000000600052603260045260246000fd5b9060005260206000209060060201600501819055506000611ab7878681548110611a96577f4e487b7100000000000000000000000000000000000000000000000000000000600052603260045260246000fd5b906000526020600020906006020160040154836132cb90919063ffffffff16565b905060006001811115611af3577f4e487b7100000000000000000000000000000000000000000000000000000000600052602160045260246000fd5b8b6001811115611b2c577f4e487b7100000000000000000000000000000000000000000000000000000000600052602160045260246000fd5b14156120b85780600360003373ffffffffffffffffffffffffffffffffffffffff1673ffffffffffffffffffffffffffffffffffffffff16815260200190815260200160002060007f45544800000000000000000000000000000000000000000000000000000000008152602001908152602001600020541015611baf57600080fd5b611c1282600360003373ffffffffffffffffffffffffffffffffffffffff1673ffffffffffffffffffffffffffffffffffffffff16815260200190815260200160002060008d8152602001908152602001600020546132b590919063ffffffff16565b600360003373ffffffffffffffffffffffffffffffffffffffff1673ffffffffffffffffffffffffffffffffffffffff16815260200190815260200160002060008c815260200190815260200160002081905550611ce981600360003373ffffffffffffffffffffffffffffffffffffffff1673ffffffffffffffffffffffffffffffffffffffff16815260200190815260200160002060007f45544800000000000000000000000000000000000000000000000000000000008152602001908152602001600020546133ad90919063ffffffff16565b600360003373ffffffffffffffffffffffffffffffffffffffff1673ffffffffffffffffffffffffffffffffffffffff16815260200190815260200160002060007f4554480000000000000000000000000000000000000000000000000000000000815260200190815260200160002081905550611e2a82600360008a8981548110611d9e577f4e487b7100000000000000000000000000000000000000000000000000000000600052603260045260246000fd5b906000526020600020906006020160010160009054906101000a900473ffffffffffffffffffffffffffffffffffffffff1673ffffffffffffffffffffffffffffffffffffffff1673ffffffffffffffffffffffffffffffffffffffff16815260200190815260200160002060008d8152602001908152602001600020546133ad90919063ffffffff16565b60036000898881548110611e67577f4e487b7100000000000000000000000000000000000000000000000000000000600052603260045260246000fd5b906000526020600020906006020160010160009054906101000a900473ffffffffffffffffffffffffffffffffffffffff1673ffffffffffffffffffffffffffffffffffffffff1673ffffffffffffffffffffffffffffffffffffffff16815260200190815260200160002060008c815260200190815260200160002081905550611fd581600360008a8981548110611f29577f4e487b7100000000000000000000000000000000000000000000000000000000600052603260045260246000fd5b906000526020600020906006020160010160009054906101000a900473ffffffffffffffffffffffffffffffffffffffff1673ffffffffffffffffffffffffffffffffffffffff1673ffffffffffffffffffffffffffffffffffffffff16815260200190815260200160002060007f45544800000000000000000000000000000000000000000000000000000000008152602001908152602001600020546132b590919063ffffffff16565b60036000898881548110612012577f4e487b7100000000000000000000000000000000000000000000000000000000600052603260045260246000fd5b906000526020600020906006020160010160009054906101000a900473ffffffffffffffffffffffffffffffffffffffff1673ffffffffffffffffffffffffffffffffffffffff1673ffffffffffffffffffffffffffffffffffffffff16815260200190815260200160002060007f4554480000000000000000000000000000000000000000000000000000000000815260200190815260200160002081905550612636565b6001808111156120f1577f4e487b7100000000000000000000000000000000000000000000000000000000600052602160045260246000fd5b8b600181111561212a577f4e487b7100000000000000000000000000000000000000000000000000000000600052602160045260246000fd5b14156126355761219382600360003373ffffffffffffffffffffffffffffffffffffffff1673ffffffffffffffffffffffffffffffffffffffff16815260200190815260200160002060008d8152602001908152602001600020546133ad90919063ffffffff16565b600360003373ffffffffffffffffffffffffffffffffffffffff1673ffffffffffffffffffffffffffffffffffffffff16815260200190815260200160002060008c81526020019081526020016000208190555061226a81600360003373ffffffffffffffffffffffffffffffffffffffff1673ffffffffffffffffffffffffffffffffffffffff16815260200190815260200160002060007f45544800000000000000000000000000000000000000000000000000000000008152602001908152602001600020546132b590919063ffffffff16565b600360003373ffffffffffffffffffffffffffffffffffffffff1673ffffffffffffffffffffffffffffffffffffffff16815260200190815260200160002060007f45544800000000000000000000000000000000000000000000000000000000008152602001908152602001600020819055506123ab82600360008a898154811061231f577f4e487b7100000000000000000000000000000000000000000000000000000000600052603260045260246000fd5b906000526020600020906006020160010160009054906101000a900473ffffffffffffffffffffffffffffffffffffffff1673ffffffffffffffffffffffffffffffffffffffff1673ffffffffffffffffffffffffffffffffffffffff16815260200190815260200160002060008d8152602001908152602001600020546132b590919063ffffffff16565b600360008988815481106123e8577f4e487b7100000000000000000000000000000000000000000000000000000000600052603260045260246000fd5b906000526020600020906006020160010160009054906101000a900473ffffffffffffffffffffffffffffffffffffffff1673ffffffffffffffffffffffffffffffffffffffff1673ffffffffffffffffffffffffffffffffffffffff16815260200190815260200160002060008c81526020019081526020016000208190555061255681600360008a89815481106124aa577f4e487b7100000000000000000000000000000000000000000000000000000000600052603260045260246000fd5b906000526020600020906006020160010160009054906101000a900473ffffffffffffffffffffffffffffffffffffffff1673ffffffffffffffffffffffffffffffffffffffff1673ffffffffffffffffffffffffffffffffffffffff16815260200190815260200160002060007f45544800000000000000000000000000000000000000000000000000000000008152602001908152602001600020546133ad90919063ffffffff16565b60036000898881548110612593577f4e487b7100000000000000000000000000000000000000000000000000000000600052603260045260246000fd5b906000526020600020906006020160010160009054906101000a900473ffffffffffffffffffffffffffffffffffffffff1673ffffffffffffffffffffffffffffffffffffffff1673ffffffffffffffffffffffffffffffffffffffff16815260200190815260200160002060007f45544800000000000000000000000000000000000000000000000000000000008152602001908152602001600020819055505b5b50505050808061264590613e9d565b9150506118a9565b505b600082805490501180156126f8575081600081548110612698577f4e487b7100000000000000000000000000000000000000000000000000000000600052603260045260246000fd5b906000526020600020906006020160030154826000815481106126e4577f4e487b7100000000000000000000000000000000000000000000000000000000600052603260045260246000fd5b906000526020600020906006020160050154145b1561297d5760005b600183805490506127119190613dc8565b8110156128c457826001826127269190613d18565b8154811061275d577f4e487b7100000000000000000000000000000000000000000000000000000000600052603260045260246000fd5b90600052602060002090600602018382815481106127a4577f4e487b7100000000000000000000000000000000000000000000000000000000600052603260045260246000fd5b9060005260206000209060060201600082015481600001556001820160009054906101000a900473ffffffffffffffffffffffffffffffffffffffff168160010160006101000a81548173ffffffffffffffffffffffffffffffffffffffff021916908373ffffffffffffffffffffffffffffffffffffffff1602179055506001820160149054906101000a900460ff168160010160146101000a81548160ff02191690836001811115612881577f4e487b7100000000000000000000000000000000000000000000000000000000600052602160045260246000fd5b02179055506002820154816002015560038201548160030155600482015481600401556005820154816005015590505080806128bc90613e9d565b915050612700565b50818054806128fc577f4e487b7100000000000000000000000000000000000000000000000000000000600052603160045260246000fd5b60019003818190600052602060002090600602016000808201600090556001820160006101000a81549073ffffffffffffffffffffffffffffffffffffffff02191690556001820160146101000a81549060ff021916905560028201600090556003820160009055600482016000905560058201600090555050905561264f565b843373ffffffffffffffffffffffffffffffffffffffff167f055e46ce40ba54310a4ea6f756029253cddb6ccddbc9cafb926b850ea9eb9bc788876040516129c6929190613b04565b60405180910390a3505050505050565b600281815481106129e657600080fd5b906000526020600020016000915090505481565b80600073ffffffffffffffffffffffffffffffffffffffff166001600083815260200190815260200160002060010160009054906101000a900473ffffffffffffffffffffffffffffffffffffffff1673ffffffffffffffffffffffffffffffffffffffff161415612aa1576040517f08c379a0000000000000000000000000000000000000000000000000000000008152600401612a9890613ba4565b60405180910390fd5b612aa96132e1565b73ffffffffffffffffffffffffffffffffffffffff16612ac7611565565b73ffffffffffffffffffffffffffffffffffffffff1614612b1d576040517f08c379a0000000000000000000000000000000000000000000000000000000008152600401612b1490613bc4565b60405180910390fd5b82600360003373ffffffffffffffffffffffffffffffffffffffff1673ffffffffffffffffffffffffffffffffffffffff1681526020019081526020016000206000848152602001908152602001600020541015612bb0576040517f08c379a0000000000000000000000000000000000000000000000000000000008152600401612ba790613c24565b60405180910390fd5b612c1383600360003373ffffffffffffffffffffffffffffffffffffffff1673ffffffffffffffffffffffffffffffffffffffff1681526020019081526020016000206000858152602001908152602001600020546133ad90919063ffffffff16565b600360003373ffffffffffffffffffffffffffffffffffffffff1673ffffffffffffffffffffffffffffffffffffffff1681526020019081526020016000206000848152602001908152602001600020819055506001600083815260200190815260200160002060010160009054906101000a900473ffffffffffffffffffffffffffffffffffffffff1673ffffffffffffffffffffffffffffffffffffffff1663a9059cbb33856040518363ffffffff1660e01b8152600401612cd8929190613a75565b602060405180830381600087803b158015612cf257600080fd5b505af1158015612d06573d6000803e3d6000fd5b505050506040513d601f19601f82011682018060405250810190612d2a9190613491565b50505050565b60056020528260005260406000206020528160005260406000208181548110612d5857600080fd5b906000526020600020906006020160009250925050508060000154908060010160009054906101000a900473ffffffffffffffffffffffffffffffffffffffff16908060010160149054906101000a900460ff16908060020154908060030154908060040154908060050154905087565b6060600560008481526020019081526020016000206000836001811115612e19577f4e487b7100000000000000000000000000000000000000000000000000000000600052602160045260246000fd5b8152602001908152602001600020805480602002602001604051908101604052809291908181526020016000905b82821015612f8857838290600052602060002090600602016040518060e0016040529081600082015481526020016001820160009054906101000a900473ffffffffffffffffffffffffffffffffffffffff1673ffffffffffffffffffffffffffffffffffffffff1673ffffffffffffffffffffffffffffffffffffffff1681526020016001820160149054906101000a900460ff166001811115612f15577f4e487b7100000000000000000000000000000000000000000000000000000000600052602160045260246000fd5b6001811115612f4d577f4e487b7100000000000000000000000000000000000000000000000000000000600052602160045260246000fd5b815260200160028201548152602001600382015481526020016004820154815260200160058201548152505081526020019060010190612e47565b50505050905092915050565b80600073ffffffffffffffffffffffffffffffffffffffff166001600083815260200190815260200160002060010160009054906101000a900473ffffffffffffffffffffffffffffffffffffffff1673ffffffffffffffffffffffffffffffffffffffff16141561303b576040517f08c379a000000000000000000000000000000000000000000000000000000000815260040161303290613ba4565b60405180910390fd5b6001600083815260200190815260200160002060010160009054906101000a900473ffffffffffffffffffffffffffffffffffffffff1673ffffffffffffffffffffffffffffffffffffffff166323b872dd3330866040518463ffffffff1660e01b81526004016130ae93929190613a3e565b602060405180830381600087803b1580156130c857600080fd5b505af11580156130dc573d6000803e3d6000fd5b505050506040513d601f19601f820116820180604052508101906131009190613491565b5061316483600360003373ffffffffffffffffffffffffffffffffffffffff1673ffffffffffffffffffffffffffffffffffffffff1681526020019081526020016000206000858152602001908152602001600020546132b590919063ffffffff16565b600360003373ffffffffffffffffffffffffffffffffffffffff1673ffffffffffffffffffffffffffffffffffffffff168152602001908152602001600020600084815260200190815260200160002081905550505050565b6131c56132e1565b73ffffffffffffffffffffffffffffffffffffffff166131e3611565565b73ffffffffffffffffffffffffffffffffffffffff1614613239576040517f08c379a000000000000000000000000000000000000000000000000000000000815260040161323090613bc4565b60405180910390fd5b600073ffffffffffffffffffffffffffffffffffffffff168173ffffffffffffffffffffffffffffffffffffffff1614156132a9576040517f08c379a00000000000000000000000000000000000000000000000000000000081526004016132a090613b64565b60405180910390fd5b6132b2816132e9565b50565b600081836132c39190613d18565b905092915050565b600081836132d99190613d6e565b905092915050565b600033905090565b60008060009054906101000a900473ffffffffffffffffffffffffffffffffffffffff169050816000806101000a81548173ffffffffffffffffffffffffffffffffffffffff021916908373ffffffffffffffffffffffffffffffffffffffff1602179055508173ffffffffffffffffffffffffffffffffffffffff168173ffffffffffffffffffffffffffffffffffffffff167f8be0079c531659141344cd1fd0a4f28419497f9722a3daafe3b4186f6b6457e060405160405180910390a35050565b600081836133bb9190613dc8565b905092915050565b6000813590506133d281613f58565b92915050565b6000815190506133e781613f6f565b92915050565b6000813590506133fc81613f86565b92915050565b60008135905061341181613f9d565b92915050565b60008135905061342681613fad565b92915050565b60006020828403121561343e57600080fd5b600061344c848285016133c3565b91505092915050565b6000806040838503121561346857600080fd5b6000613476858286016133c3565b9250506020613487858286016133ed565b9150509250929050565b6000602082840312156134a357600080fd5b60006134b1848285016133d8565b91505092915050565b6000602082840312156134cc57600080fd5b60006134da848285016133ed565b91505092915050565b600080604083850312156134f657600080fd5b6000613504858286016133ed565b9250506020613515858286016133c3565b9150509250929050565b6000806040838503121561353257600080fd5b6000613540858286016133ed565b925050602061355185828601613402565b9150509250929050565b60008060006060848603121561357057600080fd5b600061357e868287016133ed565b935050602061358f86828701613417565b92505060406135a086828701613417565b9150509250925092565b6000806000606084860312156135bf57600080fd5b60006135cd86828701613402565b93505060206135de868287016133ed565b92505060406135ef86828701613417565b9150509250925092565b6000806000806080858703121561360f57600080fd5b600061361d87828801613402565b945050602061362e878288016133ed565b935050604061363f87828801613417565b925050606061365087828801613417565b91505092959194509250565b60006020828403121561366e57600080fd5b600061367c84828501613417565b91505092915050565b6000806040838503121561369857600080fd5b60006136a685828601613417565b92505060206136b7858286016133ed565b9150509250929050565b60006136cd8383613977565b60e08301905092915050565b6136e281613dfc565b82525050565b6136f181613dfc565b82525050565b600061370282613cde565b61370c8185613cf6565b935061371783613cce565b8060005b8381101561374857815161372f88826136c1565b975061373a83613ce9565b92505060018101905061371b565b5085935050505092915050565b61375e81613e1a565b82525050565b61376d81613e1a565b82525050565b61377c81613e61565b82525050565b61378b81613e61565b82525050565b600061379e602683613d07565b91507f4f776e61626c653a206e6577206f776e657220697320746865207a65726f206160008301527f64647265737300000000000000000000000000000000000000000000000000006020830152604082019050919050565b6000613804601483613d07565b91507f496e73756666696369656e742062616c616e63650000000000000000000000006000830152602082019050919050565b6000613844601483613d07565b91507f546f6b656e20646f6573206e6f742065786973740000000000000000000000006000830152602082019050919050565b6000613884602083613d07565b91507f4f776e61626c653a2063616c6c6572206973206e6f7420746865206f776e65726000830152602082019050919050565b60006138c4601683613d07565b91507f4e6f7420656e6f756768204574682062616c616e6365000000000000000000006000830152602082019050919050565b6000613904601183613d07565b91507f4c6f7720746f6b656e2062616c616e63650000000000000000000000000000006000830152602082019050919050565b6000613944601683613d07565b91507f42616c616e6365206e6f742073756666696369656e74000000000000000000006000830152602082019050919050565b60e08201600082015161398d6000850182613a05565b5060208201516139a060208501826136d9565b5060408201516139b36040850182613773565b5060608201516139c66060850182613755565b5060808201516139d96080850182613a05565b5060a08201516139ec60a0850182613a05565b5060c08201516139ff60c0850182613a05565b50505050565b613a0e81613e57565b82525050565b613a1d81613e57565b82525050565b6000602082019050613a3860008301846136e8565b92915050565b6000606082019050613a5360008301866136e8565b613a6060208301856136e8565b613a6d6040830184613a14565b949350505050565b6000604082019050613a8a60008301856136e8565b613a976020830184613a14565b9392505050565b60006020820190508181036000830152613ab881846136f7565b905092915050565b6000602082019050613ad56000830184613764565b92915050565b6000604082019050613af06000830185613764565b613afd60208301846136e8565b9392505050565b6000604082019050613b196000830185613782565b613b266020830184613a14565b9392505050565b6000606082019050613b426000830186613782565b613b4f6020830185613a14565b613b5c6040830184613a14565b949350505050565b60006020820190508181036000830152613b7d81613791565b9050919050565b60006020820190508181036000830152613b9d816137f7565b9050919050565b60006020820190508181036000830152613bbd81613837565b9050919050565b60006020820190508181036000830152613bdd81613877565b9050919050565b60006020820190508181036000830152613bfd816138b7565b9050919050565b60006020820190508181036000830152613c1d816138f7565b9050919050565b60006020820190508181036000830152613c3d81613937565b9050919050565b6000602082019050613c596000830184613a14565b92915050565b600060e082019050613c74600083018a613a14565b613c8160208301896136e8565b613c8e6040830188613782565b613c9b6060830187613764565b613ca86080830186613a14565b613cb560a0830185613a14565b613cc260c0830184613a14565b98975050505050505050565b6000819050602082019050919050565b600081519050919050565b6000602082019050919050565b600082825260208201905092915050565b600082825260208201905092915050565b6000613d2382613e57565b9150613d2e83613e57565b9250827fffffffffffffffffffffffffffffffffffffffffffffffffffffffffffffffff03821115613d6357613d62613ee6565b5b828201905092915050565b6000613d7982613e57565b9150613d8483613e57565b9250817fffffffffffffffffffffffffffffffffffffffffffffffffffffffffffffffff0483118215151615613dbd57613dbc613ee6565b5b828202905092915050565b6000613dd382613e57565b9150613dde83613e57565b925082821015613df157613df0613ee6565b5b828203905092915050565b6000613e0782613e37565b9050919050565b60008115159050919050565b6000819050919050565b6000819050613e3282613f44565b919050565b600073ffffffffffffffffffffffffffffffffffffffff82169050919050565b6000819050919050565b6000613e6c82613e24565b9050919050565b6000613e7e82613e57565b91506000821415613e9257613e91613ee6565b5b600182039050919050565b6000613ea882613e57565b91507fffffffffffffffffffffffffffffffffffffffffffffffffffffffffffffffff821415613edb57613eda613ee6565b5b600182019050919050565b7f4e487b7100000000000000000000000000000000000000000000000000000000600052601160045260246000fd5b7f4e487b7100000000000000000000000000000000000000000000000000000000600052602160045260246000fd5b60028110613f5557613f54613f15565b5b50565b613f6181613dfc565b8114613f6c57600080fd5b50565b613f7881613e0e565b8114613f8357600080fd5b50565b613f8f81613e1a565b8114613f9a57600080fd5b50565b60028110613faa57600080fd5b50565b613fb681613e57565b8114613fc157600080fd5b5056fea26469706673582212205fa06e2f12e23b5ae80730ce9580c0f2ddc15525631352d5e666026f5c07da5664736f6c63430008000033",
  "linkReferences": {},
  "deployedLinkReferences": {}
}