{
  "_format": "hh-sol-artifact-1",
  "contractName": "Dex",
  "sourceName": "contracts/Dex.sol",
  "abi": [
    {
      "anonymous": false,
      "inputs": [
        {
          "indexed": true,
          "internalType": "address",
          "name": "trader",
          "type": "address"
        },
        {
          "indexed": false,
          "internalType": "enum Dex.Side",
          "name": "side",
          "type": "uint8"
        },
        {
          "indexed": true,
          "internalType": "bytes32",
          "name": "ticker",
          "type": "bytes32"
        },
        {
          "indexed": false,
          "internalType": "uint256",
          "name": "amount",
          "type": "uint256"
        },
        {
          "indexed": false,
          "internalType": "uint256",
          "name": "price",
          "type": "uint256"
        },
        {
          "indexed": false,
          "internalType": "uint256",
          "name": "timestanp",
          "type": "uint256"
        }
      ],
      "name": "LimitOrder",
      "type": "event"
    },
    {
      "anonymous": false,
      "inputs": [
        {
          "indexed": true,
          "internalType": "address",
          "name": "trader",
          "type": "address"
        },
        {
          "indexed": false,
          "internalType": "enum Dex.Side",
          "name": "side",
          "type": "uint8"
        },
        {
          "indexed": true,
          "internalType": "bytes32",
          "name": "ticker",
          "type": "bytes32"
        },
        {
          "indexed": false,
          "internalType": "uint256",
          "name": "amount",
          "type": "uint256"
        },
        {
          "indexed": false,
          "internalType": "uint256",
          "name": "timestamp",
          "type": "uint256"
        }
      ],
      "name": "MarketOrder",
      "type": "event"
    },
    {
      "anonymous": false,
      "inputs": [
        {
          "indexed": true,
          "internalType": "address",
          "name": "previousOwner",
          "type": "address"
        },
        {
          "indexed": true,
          "internalType": "address",
          "name": "newOwner",
          "type": "address"
        }
      ],
      "name": "OwnershipTransferred",
      "type": "event"
    },
    {
      "inputs": [
        {
          "internalType": "bytes32",
          "name": "",
          "type": "bytes32"
        },
        {
          "internalType": "uint256",
          "name": "",
          "type": "uint256"
        },
        {
          "internalType": "uint256",
          "name": "",
          "type": "uint256"
        }
      ],
      "name": "OrderBook",
      "outputs": [
        {
          "internalType": "uint256",
          "name": "id",
          "type": "uint256"
        },
        {
          "internalType": "address",
          "name": "trader",
          "type": "address"
        },
        {
          "internalType": "enum Dex.Side",
          "name": "side",
          "type": "uint8"
        },
        {
          "internalType": "bytes32",
          "name": "ticker",
          "type": "bytes32"
        },
        {
          "internalType": "uint256",
          "name": "amount",
          "type": "uint256"
        },
        {
          "internalType": "uint256",
          "name": "price",
          "type": "uint256"
        },
        {
          "internalType": "uint256",
          "name": "filled",
          "type": "uint256"
        },
        {
          "internalType": "uint256",
          "name": "timestamp",
          "type": "uint256"
        }
      ],
      "stateMutability": "view",
      "type": "function"
    },
    {
      "inputs": [
        {
          "internalType": "bytes32",
          "name": "ticker",
          "type": "bytes32"
        },
        {
          "internalType": "address",
          "name": "tokenAddress",
          "type": "address"
        }
      ],
      "name": "addToken",
      "outputs": [],
      "stateMutability": "nonpayable",
      "type": "function"
    },
    {
      "inputs": [
        {
          "internalType": "address",
          "name": "",
          "type": "address"
        },
        {
          "internalType": "bytes32",
          "name": "",
          "type": "bytes32"
        }
      ],
      "name": "balances",
      "outputs": [
        {
          "internalType": "uint256",
          "name": "",
          "type": "uint256"
        }
      ],
      "stateMutability": "view",
      "type": "function"
    },
    {
      "inputs": [
        {
          "internalType": "enum Dex.Side",
          "name": "side",
          "type": "uint8"
        },
        {
          "internalType": "bytes32",
          "name": "ticker",
          "type": "bytes32"
        },
        {
          "internalType": "uint256",
          "name": "amount",
          "type": "uint256"
        },
        {
          "internalType": "uint256",
          "name": "price",
          "type": "uint256"
        }
      ],
      "name": "createLimitOrder",
      "outputs": [],
      "stateMutability": "nonpayable",
      "type": "function"
    },
    {
      "inputs": [
        {
          "internalType": "enum Dex.Side",
          "name": "side",
          "type": "uint8"
        },
        {
          "internalType": "bytes32",
          "name": "ticker",
          "type": "bytes32"
        },
        {
          "internalType": "uint256",
          "name": "amount",
          "type": "uint256"
        }
      ],
      "name": "createMarketOrder",
      "outputs": [],
      "stateMutability": "nonpayable",
      "type": "function"
    },
    {
      "inputs": [
        {
          "internalType": "uint256",
          "name": "amount",
          "type": "uint256"
        },
        {
          "internalType": "bytes32",
          "name": "ticker",
          "type": "bytes32"
        }
      ],
      "name": "deposit",
      "outputs": [],
      "stateMutability": "nonpayable",
      "type": "function"
    },
    {
      "inputs": [],
      "name": "depositEth",
      "outputs": [],
      "stateMutability": "payable",
      "type": "function"
    },
    {
      "inputs": [
        {
          "internalType": "bytes32",
          "name": "ticker",
          "type": "bytes32"
        },
        {
          "internalType": "enum Dex.Side",
          "name": "side",
          "type": "uint8"
        }
      ],
      "name": "getOrderBook",
      "outputs": [
        {
          "components": [
            {
              "internalType": "uint256",
              "name": "id",
              "type": "uint256"
            },
            {
              "internalType": "address",
              "name": "trader",
              "type": "address"
            },
            {
              "internalType": "enum Dex.Side",
              "name": "side",
              "type": "uint8"
            },
            {
              "internalType": "bytes32",
              "name": "ticker",
              "type": "bytes32"
            },
            {
              "internalType": "uint256",
              "name": "amount",
              "type": "uint256"
            },
            {
              "internalType": "uint256",
              "name": "price",
              "type": "uint256"
            },
            {
              "internalType": "uint256",
              "name": "filled",
              "type": "uint256"
            },
            {
              "internalType": "uint256",
              "name": "timestamp",
              "type": "uint256"
            }
          ],
          "internalType": "struct Dex.Order[]",
          "name": "",
          "type": "tuple[]"
        }
      ],
      "stateMutability": "view",
      "type": "function"
    },
    {
      "inputs": [],
      "name": "getTokenListLength",
      "outputs": [
        {
          "internalType": "uint256",
          "name": "",
          "type": "uint256"
        }
      ],
      "stateMutability": "view",
      "type": "function"
    },
    {
      "inputs": [],
      "name": "nextOrderId",
      "outputs": [
        {
          "internalType": "uint256",
          "name": "",
          "type": "uint256"
        }
      ],
      "stateMutability": "view",
      "type": "function"
    },
    {
      "inputs": [],
      "name": "owner",
      "outputs": [
        {
          "internalType": "address",
          "name": "",
          "type": "address"
        }
      ],
      "stateMutability": "view",
      "type": "function"
    },
    {
      "inputs": [],
      "name": "renounceOwnership",
      "outputs": [],
      "stateMutability": "nonpayable",
      "type": "function"
    },
    {
      "inputs": [
        {
          "internalType": "uint256",
          "name": "",
          "type": "uint256"
        }
      ],
      "name": "tokenList",
      "outputs": [
        {
          "internalType": "bytes32",
          "name": "",
          "type": "bytes32"
        }
      ],
      "stateMutability": "view",
      "type": "function"
    },
    {
      "inputs": [
        {
          "internalType": "bytes32",
          "name": "",
          "type": "bytes32"
        }
      ],
      "name": "tokenMapping",
      "outputs": [
        {
          "internalType": "bytes32",
          "name": "ticker",
          "type": "bytes32"
        },
        {
          "internalType": "address",
          "name": "tokenAddress",
          "type": "address"
        }
      ],
      "stateMutability": "view",
      "type": "function"
    },
    {
      "inputs": [
        {
          "internalType": "address",
          "name": "newOwner",
          "type": "address"
        }
      ],
      "name": "transferOwnership",
      "outputs": [],
      "stateMutability": "nonpayable",
      "type": "function"
    },
    {
      "inputs": [
        {
          "internalType": "uint256",
          "name": "amount",
          "type": "uint256"
        },
        {
          "internalType": "bytes32",
          "name": "ticker",
          "type": "bytes32"
        }
      ],
      "name": "withdraw",
      "outputs": [],
      "stateMutability": "nonpayable",
      "type": "function"
    }
  ],
  "bytecode": "0x608060405260006004553480156200001657600080fd5b50620000376200002b6200003d60201b60201c565b6200004560201b60201c565b62000109565b600033905090565b60008060009054906101000a900473ffffffffffffffffffffffffffffffffffffffff169050816000806101000a81548173ffffffffffffffffffffffffffffffffffffffff021916908373ffffffffffffffffffffffffffffffffffffffff1602179055508173ffffffffffffffffffffffffffffffffffffffff168173ffffffffffffffffffffffffffffffffffffffff167f8be0079c531659141344cd1fd0a4f28419497f9722a3daafe3b4186f6b6457e060405160405180910390a35050565b61403580620001196000396000f3fe6080604052600436106100f35760003560e01c80639776aacf1161008a578063acc02df911610059578063acc02df9146102f6578063ba58ea681461033a578063c9630cb014610377578063f2fde38b146103a0576100f3565b80639776aacf1461023e57806399ec2f1c146102675780639ead722214610290578063a8d2021a146102cd576100f3565b8063667cb4ba116100c6578063667cb4ba146101955780636f3b62f9146101d3578063715018a6146101fc5780638da5cb5b14610213576100f3565b80631f14df69146100f85780632a58b33014610135578063439370b1146101605780635719dd221461016a575b600080fd5b34801561010457600080fd5b5061011f600480360381019061011a9190613450565b6103c9565b60405161012c9190613c70565b60405180910390f35b34801561014157600080fd5b5061014a6103ee565b6040516101579190613c70565b60405180910390f35b6101686103f4565b005b34801561017657600080fd5b5061017f6104ed565b60405161018c9190613c70565b60405180910390f35b3480156101a157600080fd5b506101bc60048036038101906101b791906134b5565b6104fa565b6040516101ca929190613aeb565b60405180910390f35b3480156101df57600080fd5b506101fa60048036038101906101f591906135f4565b61053e565b005b34801561020857600080fd5b5061021161152f565b005b34801561021f57600080fd5b506102286115b7565b6040516102359190613a33565b60405180910390f35b34801561024a57600080fd5b50610265600480360381019061026091906134de565b6115e0565b005b34801561027357600080fd5b5061028e600480360381019061028991906135a5565b61171b565b005b34801561029c57600080fd5b506102b760048036038101906102b29190613657565b612a3c565b6040516102c49190613ad0565b60405180910390f35b3480156102d957600080fd5b506102f460048036038101906102ef9190613680565b612a60565b005b34801561030257600080fd5b5061031d60048036038101906103189190613556565b612d1a565b604051610331989796959493929190613c8b565b60405180910390f35b34801561034657600080fd5b50610361600480360381019061035c919061351a565b612db9565b60405161036e9190613aae565b60405180910390f35b34801561038357600080fd5b5061039e60048036038101906103999190613680565b612f8f565b005b3480156103ac57600080fd5b506103c760048036038101906103c29190613427565b6131b8565b005b6003602052816000526040600020602052806000526040600020600091509150505481565b60045481565b61047734600360003373ffffffffffffffffffffffffffffffffffffffff1673ffffffffffffffffffffffffffffffffffffffff16815260200190815260200160002060007f45544800000000000000000000000000000000000000000000000000000000008152602001908152602001600020546132b090919063ffffffff16565b600360003373ffffffffffffffffffffffffffffffffffffffff1673ffffffffffffffffffffffffffffffffffffffff16815260200190815260200160002060007f4554480000000000000000000000000000000000000000000000000000000000815260200190815260200160002081905550565b6000600280549050905090565b60016020528060005260406000206000915090508060000154908060010160009054906101000a900473ffffffffffffffffffffffffffffffffffffffff16905082565b60006001811115610578577f4e487b7100000000000000000000000000000000000000000000000000000000600052602160045260246000fd5b8460018111156105b1577f4e487b7100000000000000000000000000000000000000000000000000000000600052602160045260246000fd5b1415610681576105ca81836132c690919063ffffffff16565b600360003373ffffffffffffffffffffffffffffffffffffffff1673ffffffffffffffffffffffffffffffffffffffff16815260200190815260200160002060007f4554480000000000000000000000000000000000000000000000000000000000815260200190815260200160002054101561067c576040517f08c379a000000000000000000000000000000000000000000000000000000000815260040161067390613c10565b60405180910390fd5b61078e565b6001808111156106ba577f4e487b7100000000000000000000000000000000000000000000000000000000600052602160045260246000fd5b8460018111156106f3577f4e487b7100000000000000000000000000000000000000000000000000000000600052602160045260246000fd5b141561078d5781600360003373ffffffffffffffffffffffffffffffffffffffff1673ffffffffffffffffffffffffffffffffffffffff168152602001908152602001600020600085815260200190815260200160002054101561078c576040517f08c379a000000000000000000000000000000000000000000000000000000000815260040161078390613c30565b60405180910390fd5b5b5b60006005600085815260200190815260200160002060008660018111156107de577f4e487b7100000000000000000000000000000000000000000000000000000000600052602160045260246000fd5b815260200190815260200160002090508060405180610100016040528060045481526020013373ffffffffffffffffffffffffffffffffffffffff168152602001876001811115610858577f4e487b7100000000000000000000000000000000000000000000000000000000600052602160045260246000fd5b8152602001868152602001858152602001848152602001600081526020014281525090806001815401808255809150506001900390600052602060002090600702016000909190919091506000820151816000015560208201518160010160006101000a81548173ffffffffffffffffffffffffffffffffffffffff021916908373ffffffffffffffffffffffffffffffffffffffff16021790555060408201518160010160146101000a81548160ff02191690836001811115610945577f4e487b7100000000000000000000000000000000000000000000000000000000600052602160045260246000fd5b0217905550606082015181600201556080820151816003015560a0820151816004015560c0820151816005015560e0820151816006015550506000808280549050116109925760006109a4565b600182805490506109a39190613e03565b5b9050600060018111156109e0577f4e487b7100000000000000000000000000000000000000000000000000000000600052602160045260246000fd5b866001811115610a19577f4e487b7100000000000000000000000000000000000000000000000000000000600052602160045260246000fd5b1415610f32575b6000811115610f2d57818181548110610a62577f4e487b7100000000000000000000000000000000000000000000000000000000600052603260045260246000fd5b90600052602060002090600702016004015482600183610a829190613e03565b81548110610ab9577f4e487b7100000000000000000000000000000000000000000000000000000000600052603260045260246000fd5b9060005260206000209060070201600401541115610ad657610f2d565b600082600183610ae69190613e03565b81548110610b1d577f4e487b7100000000000000000000000000000000000000000000000000000000600052603260045260246000fd5b906000526020600020906007020160405180610100016040529081600082015481526020016001820160009054906101000a900473ffffffffffffffffffffffffffffffffffffffff1673ffffffffffffffffffffffffffffffffffffffff1673ffffffffffffffffffffffffffffffffffffffff1681526020016001820160149054906101000a900460ff166001811115610be2577f4e487b7100000000000000000000000000000000000000000000000000000000600052602160045260246000fd5b6001811115610c1a577f4e487b7100000000000000000000000000000000000000000000000000000000600052602160045260246000fd5b8152602001600282015481526020016003820154815260200160048201548152602001600582015481526020016006820154815250509050828281548110610c8b577f4e487b7100000000000000000000000000000000000000000000000000000000600052603260045260246000fd5b906000526020600020906007020183600184610ca79190613e03565b81548110610cde577f4e487b7100000000000000000000000000000000000000000000000000000000600052603260045260246000fd5b9060005260206000209060070201600082015481600001556001820160009054906101000a900473ffffffffffffffffffffffffffffffffffffffff168160010160006101000a81548173ffffffffffffffffffffffffffffffffffffffff021916908373ffffffffffffffffffffffffffffffffffffffff1602179055506001820160149054906101000a900460ff168160010160146101000a81548160ff02191690836001811115610dbb577f4e487b7100000000000000000000000000000000000000000000000000000000600052602160045260246000fd5b0217905550600282015481600201556003820154816003015560048201548160040155600582015481600501556006820154816006015590505080838381548110610e2f577f4e487b7100000000000000000000000000000000000000000000000000000000600052603260045260246000fd5b90600052602060002090600702016000820151816000015560208201518160010160006101000a81548173ffffffffffffffffffffffffffffffffffffffff021916908373ffffffffffffffffffffffffffffffffffffffff16021790555060408201518160010160146101000a81548160ff02191690836001811115610edf577f4e487b7100000000000000000000000000000000000000000000000000000000600052602160045260246000fd5b0217905550606082015181600201556080820151816003015560a0820151816004015560c0820151816005015560e082015181600601559050508180610f2490613eae565b92505050610a20565b6114ba565b600180811115610f6b577f4e487b7100000000000000000000000000000000000000000000000000000000600052602160045260246000fd5b866001811115610fa4577f4e487b7100000000000000000000000000000000000000000000000000000000600052602160045260246000fd5b14156114b9575b60008111156114b857818181548110610fed577f4e487b7100000000000000000000000000000000000000000000000000000000600052603260045260246000fd5b9060005260206000209060070201600401548260018361100d9190613e03565b81548110611044577f4e487b7100000000000000000000000000000000000000000000000000000000600052603260045260246000fd5b9060005260206000209060070201600401541015611061576114b8565b6000826001836110719190613e03565b815481106110a8577f4e487b7100000000000000000000000000000000000000000000000000000000600052603260045260246000fd5b906000526020600020906007020160405180610100016040529081600082015481526020016001820160009054906101000a900473ffffffffffffffffffffffffffffffffffffffff1673ffffffffffffffffffffffffffffffffffffffff1673ffffffffffffffffffffffffffffffffffffffff1681526020016001820160149054906101000a900460ff16600181111561116d577f4e487b7100000000000000000000000000000000000000000000000000000000600052602160045260246000fd5b60018111156111a5577f4e487b7100000000000000000000000000000000000000000000000000000000600052602160045260246000fd5b8152602001600282015481526020016003820154815260200160048201548152602001600582015481526020016006820154815250509050828281548110611216577f4e487b7100000000000000000000000000000000000000000000000000000000600052603260045260246000fd5b9060005260206000209060070201836001846112329190613e03565b81548110611269577f4e487b7100000000000000000000000000000000000000000000000000000000600052603260045260246000fd5b9060005260206000209060070201600082015481600001556001820160009054906101000a900473ffffffffffffffffffffffffffffffffffffffff168160010160006101000a81548173ffffffffffffffffffffffffffffffffffffffff021916908373ffffffffffffffffffffffffffffffffffffffff1602179055506001820160149054906101000a900460ff168160010160146101000a81548160ff02191690836001811115611346577f4e487b7100000000000000000000000000000000000000000000000000000000600052602160045260246000fd5b02179055506002820154816002015560038201548160030155600482015481600401556005820154816005015560068201548160060155905050808383815481106113ba577f4e487b7100000000000000000000000000000000000000000000000000000000600052603260045260246000fd5b90600052602060002090600702016000820151816000015560208201518160010160006101000a81548173ffffffffffffffffffffffffffffffffffffffff021916908373ffffffffffffffffffffffffffffffffffffffff16021790555060408201518160010160146101000a81548160ff0219169083600181111561146a577f4e487b7100000000000000000000000000000000000000000000000000000000600052602160045260246000fd5b0217905550606082015181600201556080820151816003015560a0820151816004015560c0820151816005015560e0820151816006015590505081806114af90613eae565b92505050610fab565b5b5b600460008154809291906114cd90613ed8565b9190505550843373ffffffffffffffffffffffffffffffffffffffff167f4db2a04ccbf38cb5b50f8315c5beffa7a512aab21fdf2f320f877d47298016428887874260405161151f9493929190613b4b565b60405180910390a3505050505050565b6115376132dc565b73ffffffffffffffffffffffffffffffffffffffff166115556115b7565b73ffffffffffffffffffffffffffffffffffffffff16146115ab576040517f08c379a00000000000000000000000000000000000000000000000000000000081526004016115a290613bf0565b60405180910390fd5b6115b560006132e4565b565b60008060009054906101000a900473ffffffffffffffffffffffffffffffffffffffff16905090565b6115e86132dc565b73ffffffffffffffffffffffffffffffffffffffff166116066115b7565b73ffffffffffffffffffffffffffffffffffffffff161461165c576040517f08c379a000000000000000000000000000000000000000000000000000000000815260040161165390613bf0565b60405180910390fd5b60405180604001604052808381526020018273ffffffffffffffffffffffffffffffffffffffff16815250600160008481526020019081526020016000206000820151816000015560208201518160010160006101000a81548173ffffffffffffffffffffffffffffffffffffffff021916908373ffffffffffffffffffffffffffffffffffffffff16021790555090505060028290806001815401808255809150506001900390600052602060002001600090919091909150555050565b600180811115611754577f4e487b7100000000000000000000000000000000000000000000000000000000600052602160045260246000fd5b83600181111561178d577f4e487b7100000000000000000000000000000000000000000000000000000000600052602160045260246000fd5b14156118475780600360003373ffffffffffffffffffffffffffffffffffffffff1673ffffffffffffffffffffffffffffffffffffffff16815260200190815260200160002060007f45544800000000000000000000000000000000000000000000000000000000008152602001908152602001600020541015611846576040517f08c379a000000000000000000000000000000000000000000000000000000000815260040161183d90613bb0565b60405180910390fd5b5b6000806001811115611882577f4e487b7100000000000000000000000000000000000000000000000000000000600052602160045260246000fd5b8460018111156118bb577f4e487b7100000000000000000000000000000000000000000000000000000000600052602160045260246000fd5b14156118ca57600190506118cf565b600090505b600060056000858152602001908152602001600020600083815260200190815260200160002090506000805b82805490508110801561190d57508482105b1561269f57600061192783876133a890919063ffffffff16565b905060006119d2858481548110611967577f4e487b7100000000000000000000000000000000000000000000000000000000600052603260045260246000fd5b9060005260206000209060070201600501548685815481106119b2577f4e487b7100000000000000000000000000000000000000000000000000000000600052603260045260246000fd5b9060005260206000209060070201600301546133a890919063ffffffff16565b90506000828211156119e6578290506119ea565b8190505b6119fd81866132b090919063ffffffff16565b9450611a5c81878681548110611a3c577f4e487b7100000000000000000000000000000000000000000000000000000000600052603260045260246000fd5b9060005260206000209060070201600501546132b090919063ffffffff16565b868581548110611a95577f4e487b7100000000000000000000000000000000000000000000000000000000600052603260045260246000fd5b9060005260206000209060070201600501819055506000611b09878681548110611ae8577f4e487b7100000000000000000000000000000000000000000000000000000000600052603260045260246000fd5b906000526020600020906007020160040154836132c690919063ffffffff16565b905060006001811115611b45577f4e487b7100000000000000000000000000000000000000000000000000000000600052602160045260246000fd5b8b6001811115611b7e577f4e487b7100000000000000000000000000000000000000000000000000000000600052602160045260246000fd5b141561210a5780600360003373ffffffffffffffffffffffffffffffffffffffff1673ffffffffffffffffffffffffffffffffffffffff16815260200190815260200160002060007f45544800000000000000000000000000000000000000000000000000000000008152602001908152602001600020541015611c0157600080fd5b611c6482600360003373ffffffffffffffffffffffffffffffffffffffff1673ffffffffffffffffffffffffffffffffffffffff16815260200190815260200160002060008d8152602001908152602001600020546132b090919063ffffffff16565b600360003373ffffffffffffffffffffffffffffffffffffffff1673ffffffffffffffffffffffffffffffffffffffff16815260200190815260200160002060008c815260200190815260200160002081905550611d3b81600360003373ffffffffffffffffffffffffffffffffffffffff1673ffffffffffffffffffffffffffffffffffffffff16815260200190815260200160002060007f45544800000000000000000000000000000000000000000000000000000000008152602001908152602001600020546133a890919063ffffffff16565b600360003373ffffffffffffffffffffffffffffffffffffffff1673ffffffffffffffffffffffffffffffffffffffff16815260200190815260200160002060007f4554480000000000000000000000000000000000000000000000000000000000815260200190815260200160002081905550611e7c82600360008a8981548110611df0577f4e487b7100000000000000000000000000000000000000000000000000000000600052603260045260246000fd5b906000526020600020906007020160010160009054906101000a900473ffffffffffffffffffffffffffffffffffffffff1673ffffffffffffffffffffffffffffffffffffffff1673ffffffffffffffffffffffffffffffffffffffff16815260200190815260200160002060008d8152602001908152602001600020546133a890919063ffffffff16565b60036000898881548110611eb9577f4e487b7100000000000000000000000000000000000000000000000000000000600052603260045260246000fd5b906000526020600020906007020160010160009054906101000a900473ffffffffffffffffffffffffffffffffffffffff1673ffffffffffffffffffffffffffffffffffffffff1673ffffffffffffffffffffffffffffffffffffffff16815260200190815260200160002060008c81526020019081526020016000208190555061202781600360008a8981548110611f7b577f4e487b7100000000000000000000000000000000000000000000000000000000600052603260045260246000fd5b906000526020600020906007020160010160009054906101000a900473ffffffffffffffffffffffffffffffffffffffff1673ffffffffffffffffffffffffffffffffffffffff1673ffffffffffffffffffffffffffffffffffffffff16815260200190815260200160002060007f45544800000000000000000000000000000000000000000000000000000000008152602001908152602001600020546132b090919063ffffffff16565b60036000898881548110612064577f4e487b7100000000000000000000000000000000000000000000000000000000600052603260045260246000fd5b906000526020600020906007020160010160009054906101000a900473ffffffffffffffffffffffffffffffffffffffff1673ffffffffffffffffffffffffffffffffffffffff1673ffffffffffffffffffffffffffffffffffffffff16815260200190815260200160002060007f4554480000000000000000000000000000000000000000000000000000000000815260200190815260200160002081905550612688565b600180811115612143577f4e487b7100000000000000000000000000000000000000000000000000000000600052602160045260246000fd5b8b600181111561217c577f4e487b7100000000000000000000000000000000000000000000000000000000600052602160045260246000fd5b1415612687576121e582600360003373ffffffffffffffffffffffffffffffffffffffff1673ffffffffffffffffffffffffffffffffffffffff16815260200190815260200160002060008d8152602001908152602001600020546133a890919063ffffffff16565b600360003373ffffffffffffffffffffffffffffffffffffffff1673ffffffffffffffffffffffffffffffffffffffff16815260200190815260200160002060008c8152602001908152602001600020819055506122bc81600360003373ffffffffffffffffffffffffffffffffffffffff1673ffffffffffffffffffffffffffffffffffffffff16815260200190815260200160002060007f45544800000000000000000000000000000000000000000000000000000000008152602001908152602001600020546132b090919063ffffffff16565b600360003373ffffffffffffffffffffffffffffffffffffffff1673ffffffffffffffffffffffffffffffffffffffff16815260200190815260200160002060007f45544800000000000000000000000000000000000000000000000000000000008152602001908152602001600020819055506123fd82600360008a8981548110612371577f4e487b7100000000000000000000000000000000000000000000000000000000600052603260045260246000fd5b906000526020600020906007020160010160009054906101000a900473ffffffffffffffffffffffffffffffffffffffff1673ffffffffffffffffffffffffffffffffffffffff1673ffffffffffffffffffffffffffffffffffffffff16815260200190815260200160002060008d8152602001908152602001600020546132b090919063ffffffff16565b6003600089888154811061243a577f4e487b7100000000000000000000000000000000000000000000000000000000600052603260045260246000fd5b906000526020600020906007020160010160009054906101000a900473ffffffffffffffffffffffffffffffffffffffff1673ffffffffffffffffffffffffffffffffffffffff1673ffffffffffffffffffffffffffffffffffffffff16815260200190815260200160002060008c8152602001908152602001600020819055506125a881600360008a89815481106124fc577f4e487b7100000000000000000000000000000000000000000000000000000000600052603260045260246000fd5b906000526020600020906007020160010160009054906101000a900473ffffffffffffffffffffffffffffffffffffffff1673ffffffffffffffffffffffffffffffffffffffff1673ffffffffffffffffffffffffffffffffffffffff16815260200190815260200160002060007f45544800000000000000000000000000000000000000000000000000000000008152602001908152602001600020546133a890919063ffffffff16565b600360008988815481106125e5577f4e487b7100000000000000000000000000000000000000000000000000000000600052603260045260246000fd5b906000526020600020906007020160010160009054906101000a900473ffffffffffffffffffffffffffffffffffffffff1673ffffffffffffffffffffffffffffffffffffffff1673ffffffffffffffffffffffffffffffffffffffff16815260200190815260200160002060007f45544800000000000000000000000000000000000000000000000000000000008152602001908152602001600020819055505b5b50505050808061269790613ed8565b9150506118fb565b505b6000828054905011801561274a5750816000815481106126ea577f4e487b7100000000000000000000000000000000000000000000000000000000600052603260045260246000fd5b90600052602060002090600702016003015482600081548110612736577f4e487b7100000000000000000000000000000000000000000000000000000000600052603260045260246000fd5b906000526020600020906007020160050154145b156129e15760005b600183805490506127639190613e03565b81101561292057826001826127789190613d53565b815481106127af577f4e487b7100000000000000000000000000000000000000000000000000000000600052603260045260246000fd5b90600052602060002090600702018382815481106127f6577f4e487b7100000000000000000000000000000000000000000000000000000000600052603260045260246000fd5b9060005260206000209060070201600082015481600001556001820160009054906101000a900473ffffffffffffffffffffffffffffffffffffffff168160010160006101000a81548173ffffffffffffffffffffffffffffffffffffffff021916908373ffffffffffffffffffffffffffffffffffffffff1602179055506001820160149054906101000a900460ff168160010160146101000a81548160ff021916908360018111156128d3577f4e487b7100000000000000000000000000000000000000000000000000000000600052602160045260246000fd5b02179055506002820154816002015560038201548160030155600482015481600401556005820154816005015560068201548160060155905050808061291890613ed8565b915050612752565b5081805480612958577f4e487b7100000000000000000000000000000000000000000000000000000000600052603160045260246000fd5b60019003818190600052602060002090600702016000808201600090556001820160006101000a81549073ffffffffffffffffffffffffffffffffffffffff02191690556001820160146101000a81549060ff021916905560028201600090556003820160009055600482016000905560058201600090556006820160009055505090556126a1565b843373ffffffffffffffffffffffffffffffffffffffff167fdc0263d0b55bdfbd2412e18ec948cfd064c64619f587da84c8ba59bb490b59ff888742604051612a2c93929190613b14565b60405180910390a3505050505050565b60028181548110612a4c57600080fd5b906000526020600020016000915090505481565b80600073ffffffffffffffffffffffffffffffffffffffff166001600083815260200190815260200160002060010160009054906101000a900473ffffffffffffffffffffffffffffffffffffffff1673ffffffffffffffffffffffffffffffffffffffff161415612b07576040517f08c379a0000000000000000000000000000000000000000000000000000000008152600401612afe90613bd0565b60405180910390fd5b82600360003373ffffffffffffffffffffffffffffffffffffffff1673ffffffffffffffffffffffffffffffffffffffff1681526020019081526020016000206000848152602001908152602001600020541015612b9a576040517f08c379a0000000000000000000000000000000000000000000000000000000008152600401612b9190613c50565b60405180910390fd5b612bfd83600360003373ffffffffffffffffffffffffffffffffffffffff1673ffffffffffffffffffffffffffffffffffffffff1681526020019081526020016000206000858152602001908152602001600020546133a890919063ffffffff16565b600360003373ffffffffffffffffffffffffffffffffffffffff1673ffffffffffffffffffffffffffffffffffffffff1681526020019081526020016000206000848152602001908152602001600020819055506001600083815260200190815260200160002060010160009054906101000a900473ffffffffffffffffffffffffffffffffffffffff1673ffffffffffffffffffffffffffffffffffffffff1663a9059cbb33856040518363ffffffff1660e01b8152600401612cc2929190613a85565b602060405180830381600087803b158015612cdc57600080fd5b505af1158015612cf0573d6000803e3d6000fd5b505050506040513d601f19601f82011682018060405250810190612d14919061348c565b50505050565b60056020528260005260406000206020528160005260406000208181548110612d4257600080fd5b906000526020600020906007020160009250925050508060000154908060010160009054906101000a900473ffffffffffffffffffffffffffffffffffffffff16908060010160149054906101000a900460ff16908060020154908060030154908060040154908060050154908060060154905088565b6060600560008481526020019081526020016000206000836001811115612e09577f4e487b7100000000000000000000000000000000000000000000000000000000600052602160045260246000fd5b8152602001908152602001600020805480602002602001604051908101604052809291908181526020016000905b82821015612f83578382906000526020600020906007020160405180610100016040529081600082015481526020016001820160009054906101000a900473ffffffffffffffffffffffffffffffffffffffff1673ffffffffffffffffffffffffffffffffffffffff1673ffffffffffffffffffffffffffffffffffffffff1681526020016001820160149054906101000a900460ff166001811115612f06577f4e487b7100000000000000000000000000000000000000000000000000000000600052602160045260246000fd5b6001811115612f3e577f4e487b7100000000000000000000000000000000000000000000000000000000600052602160045260246000fd5b81526020016002820154815260200160038201548152602001600482015481526020016005820154815260200160068201548152505081526020019060010190612e37565b50505050905092915050565b80600073ffffffffffffffffffffffffffffffffffffffff166001600083815260200190815260200160002060010160009054906101000a900473ffffffffffffffffffffffffffffffffffffffff1673ffffffffffffffffffffffffffffffffffffffff161415613036576040517f08c379a000000000000000000000000000000000000000000000000000000000815260040161302d90613bd0565b60405180910390fd5b6001600083815260200190815260200160002060010160009054906101000a900473ffffffffffffffffffffffffffffffffffffffff1673ffffffffffffffffffffffffffffffffffffffff166323b872dd3330866040518463ffffffff1660e01b81526004016130a993929190613a4e565b602060405180830381600087803b1580156130c357600080fd5b505af11580156130d7573d6000803e3d6000fd5b505050506040513d601f19601f820116820180604052508101906130fb919061348c565b5061315f83600360003373ffffffffffffffffffffffffffffffffffffffff1673ffffffffffffffffffffffffffffffffffffffff1681526020019081526020016000206000858152602001908152602001600020546132b090919063ffffffff16565b600360003373ffffffffffffffffffffffffffffffffffffffff1673ffffffffffffffffffffffffffffffffffffffff168152602001908152602001600020600084815260200190815260200160002081905550505050565b6131c06132dc565b73ffffffffffffffffffffffffffffffffffffffff166131de6115b7565b73ffffffffffffffffffffffffffffffffffffffff1614613234576040517f08c379a000000000000000000000000000000000000000000000000000000000815260040161322b90613bf0565b60405180910390fd5b600073ffffffffffffffffffffffffffffffffffffffff168173ffffffffffffffffffffffffffffffffffffffff1614156132a4576040517f08c379a000000000000000000000000000000000000000000000000000000000815260040161329b90613b90565b60405180910390fd5b6132ad816132e4565b50565b600081836132be9190613d53565b905092915050565b600081836132d49190613da9565b905092915050565b600033905090565b60008060009054906101000a900473ffffffffffffffffffffffffffffffffffffffff169050816000806101000a81548173ffffffffffffffffffffffffffffffffffffffff021916908373ffffffffffffffffffffffffffffffffffffffff1602179055508173ffffffffffffffffffffffffffffffffffffffff168173ffffffffffffffffffffffffffffffffffffffff167f8be0079c531659141344cd1fd0a4f28419497f9722a3daafe3b4186f6b6457e060405160405180910390a35050565b600081836133b69190613e03565b905092915050565b6000813590506133cd81613f93565b92915050565b6000815190506133e281613faa565b92915050565b6000813590506133f781613fc1565b92915050565b60008135905061340c81613fd8565b92915050565b60008135905061342181613fe8565b92915050565b60006020828403121561343957600080fd5b6000613447848285016133be565b91505092915050565b6000806040838503121561346357600080fd5b6000613471858286016133be565b9250506020613482858286016133e8565b9150509250929050565b60006020828403121561349e57600080fd5b60006134ac848285016133d3565b91505092915050565b6000602082840312156134c757600080fd5b60006134d5848285016133e8565b91505092915050565b600080604083850312156134f157600080fd5b60006134ff858286016133e8565b9250506020613510858286016133be565b9150509250929050565b6000806040838503121561352d57600080fd5b600061353b858286016133e8565b925050602061354c858286016133fd565b9150509250929050565b60008060006060848603121561356b57600080fd5b6000613579868287016133e8565b935050602061358a86828701613412565b925050604061359b86828701613412565b9150509250925092565b6000806000606084860312156135ba57600080fd5b60006135c8868287016133fd565b93505060206135d9868287016133e8565b92505060406135ea86828701613412565b9150509250925092565b6000806000806080858703121561360a57600080fd5b6000613618878288016133fd565b9450506020613629878288016133e8565b935050604061363a87828801613412565b925050606061364b87828801613412565b91505092959194509250565b60006020828403121561366957600080fd5b600061367784828501613412565b91505092915050565b6000806040838503121561369357600080fd5b60006136a185828601613412565b92505060206136b2858286016133e8565b9150509250929050565b60006136c88383613973565b6101008301905092915050565b6136de81613e37565b82525050565b6136ed81613e37565b82525050565b60006136fe82613d19565b6137088185613d31565b935061371383613d09565b8060005b8381101561374457815161372b88826136bc565b975061373683613d24565b925050600181019050613717565b5085935050505092915050565b61375a81613e55565b82525050565b61376981613e55565b82525050565b61377881613e9c565b82525050565b61378781613e9c565b82525050565b600061379a602683613d42565b91507f4f776e61626c653a206e6577206f776e657220697320746865207a65726f206160008301527f64647265737300000000000000000000000000000000000000000000000000006020830152604082019050919050565b6000613800601483613d42565b91507f496e73756666696369656e742062616c616e63650000000000000000000000006000830152602082019050919050565b6000613840601483613d42565b91507f546f6b656e20646f6573206e6f742065786973740000000000000000000000006000830152602082019050919050565b6000613880602083613d42565b91507f4f776e61626c653a2063616c6c6572206973206e6f7420746865206f776e65726000830152602082019050919050565b60006138c0601683613d42565b91507f4e6f7420656e6f756768204574682062616c616e6365000000000000000000006000830152602082019050919050565b6000613900601183613d42565b91507f4c6f7720746f6b656e2062616c616e63650000000000000000000000000000006000830152602082019050919050565b6000613940601683613d42565b91507f42616c616e6365206e6f742073756666696369656e74000000000000000000006000830152602082019050919050565b6101008201600082015161398a6000850182613a15565b50602082015161399d60208501826136d5565b5060408201516139b0604085018261376f565b5060608201516139c36060850182613751565b5060808201516139d66080850182613a15565b5060a08201516139e960a0850182613a15565b5060c08201516139fc60c0850182613a15565b5060e0820151613a0f60e0850182613a15565b50505050565b613a1e81613e92565b82525050565b613a2d81613e92565b82525050565b6000602082019050613a4860008301846136e4565b92915050565b6000606082019050613a6360008301866136e4565b613a7060208301856136e4565b613a7d6040830184613a24565b949350505050565b6000604082019050613a9a60008301856136e4565b613aa76020830184613a24565b9392505050565b60006020820190508181036000830152613ac881846136f3565b905092915050565b6000602082019050613ae56000830184613760565b92915050565b6000604082019050613b006000830185613760565b613b0d60208301846136e4565b9392505050565b6000606082019050613b29600083018661377e565b613b366020830185613a24565b613b436040830184613a24565b949350505050565b6000608082019050613b60600083018761377e565b613b6d6020830186613a24565b613b7a6040830185613a24565b613b876060830184613a24565b95945050505050565b60006020820190508181036000830152613ba98161378d565b9050919050565b60006020820190508181036000830152613bc9816137f3565b9050919050565b60006020820190508181036000830152613be981613833565b9050919050565b60006020820190508181036000830152613c0981613873565b9050919050565b60006020820190508181036000830152613c29816138b3565b9050919050565b60006020820190508181036000830152613c49816138f3565b9050919050565b60006020820190508181036000830152613c6981613933565b9050919050565b6000602082019050613c856000830184613a24565b92915050565b600061010082019050613ca1600083018b613a24565b613cae602083018a6136e4565b613cbb604083018961377e565b613cc86060830188613760565b613cd56080830187613a24565b613ce260a0830186613a24565b613cef60c0830185613a24565b613cfc60e0830184613a24565b9998505050505050505050565b6000819050602082019050919050565b600081519050919050565b6000602082019050919050565b600082825260208201905092915050565b600082825260208201905092915050565b6000613d5e82613e92565b9150613d6983613e92565b9250827fffffffffffffffffffffffffffffffffffffffffffffffffffffffffffffffff03821115613d9e57613d9d613f21565b5b828201905092915050565b6000613db482613e92565b9150613dbf83613e92565b9250817fffffffffffffffffffffffffffffffffffffffffffffffffffffffffffffffff0483118215151615613df857613df7613f21565b5b828202905092915050565b6000613e0e82613e92565b9150613e1983613e92565b925082821015613e2c57613e2b613f21565b5b828203905092915050565b6000613e4282613e72565b9050919050565b60008115159050919050565b6000819050919050565b6000819050613e6d82613f7f565b919050565b600073ffffffffffffffffffffffffffffffffffffffff82169050919050565b6000819050919050565b6000613ea782613e5f565b9050919050565b6000613eb982613e92565b91506000821415613ecd57613ecc613f21565b5b600182039050919050565b6000613ee382613e92565b91507fffffffffffffffffffffffffffffffffffffffffffffffffffffffffffffffff821415613f1657613f15613f21565b5b600182019050919050565b7f4e487b7100000000000000000000000000000000000000000000000000000000600052601160045260246000fd5b7f4e487b7100000000000000000000000000000000000000000000000000000000600052602160045260246000fd5b60028110613f9057613f8f613f50565b5b50565b613f9c81613e37565b8114613fa757600080fd5b50565b613fb381613e49565b8114613fbe57600080fd5b50565b613fca81613e55565b8114613fd557600080fd5b50565b60028110613fe557600080fd5b50565b613ff181613e92565b8114613ffc57600080fd5b5056fea2646970667358221220c5e21243121fb7c23be8a7c3a08e3c6bb239cc38f1047132fa7edcd0f8fb525264736f6c63430008000033",
  "linkReferences": {},
  "deployedLinkReferences": {}
}